{
  "contractName": "EthSwap",
  "abi": [
    {
      "inputs": [
        {
          "internalType": "contract Token",
          "name": "_token",
          "type": "address"
        }
      ],
      "stateMutability": "nonpayable",
      "type": "constructor"
    },
    {
      "anonymous": false,
      "inputs": [
        {
          "indexed": false,
          "internalType": "address",
          "name": "account",
          "type": "address"
        },
        {
          "indexed": false,
          "internalType": "address",
          "name": "token",
          "type": "address"
        },
        {
          "indexed": false,
          "internalType": "uint256",
          "name": "amount",
          "type": "uint256"
        },
        {
          "indexed": false,
          "internalType": "uint256",
          "name": "rate",
          "type": "uint256"
        }
      ],
      "name": "TokensPurchased",
      "type": "event"
    },
    {
      "anonymous": false,
      "inputs": [
        {
          "indexed": false,
          "internalType": "address",
          "name": "account",
          "type": "address"
        },
        {
          "indexed": false,
          "internalType": "address",
          "name": "token",
          "type": "address"
        },
        {
          "indexed": false,
          "internalType": "uint256",
          "name": "amount",
          "type": "uint256"
        },
        {
          "indexed": false,
          "internalType": "uint256",
          "name": "rate",
          "type": "uint256"
        }
      ],
      "name": "TokensSold",
      "type": "event"
    },
    {
      "inputs": [],
      "name": "name",
      "outputs": [
        {
          "internalType": "string",
          "name": "",
          "type": "string"
        }
      ],
      "stateMutability": "view",
      "type": "function",
      "constant": true
    },
    {
      "inputs": [],
      "name": "rate",
      "outputs": [
        {
          "internalType": "uint256",
          "name": "",
          "type": "uint256"
        }
      ],
      "stateMutability": "view",
      "type": "function",
      "constant": true
    },
    {
      "inputs": [],
      "name": "token",
      "outputs": [
        {
          "internalType": "contract Token",
          "name": "",
          "type": "address"
        }
      ],
      "stateMutability": "view",
      "type": "function",
      "constant": true
    },
    {
      "inputs": [],
      "name": "buyTokens",
      "outputs": [],
      "stateMutability": "payable",
      "type": "function",
      "payable": true
    },
    {
      "inputs": [
        {
          "internalType": "uint256",
          "name": "_amount",
          "type": "uint256"
        }
      ],
      "name": "sellTokens",
      "outputs": [],
      "stateMutability": "payable",
      "type": "function",
      "payable": true
    }
  ],
  "bytecode": "0x60806040526040518060400160405280601881526020017f4574685377617020496e7374616e742045786368616e676500000000000000008152506000908051906020019062000051929190620000d2565b5060646002553480156200006457600080fd5b5060405162000d2b38038062000d2b83398181016040528101906200008a919062000199565b80600160006101000a81548173ffffffffffffffffffffffffffffffffffffffff021916908373ffffffffffffffffffffffffffffffffffffffff160217905550506200028c565b828054620000e0906200020d565b90600052602060002090601f01602090048101928262000104576000855562000150565b82601f106200011f57805160ff191683800117855562000150565b8280016001018555821562000150579182015b828111156200014f57825182559160200191906001019062000132565b5b5090506200015f919062000163565b5090565b5b808211156200017e57600081600090555060010162000164565b5090565b600081519050620001938162000272565b92915050565b600060208284031215620001ac57600080fd5b6000620001bc8482850162000182565b91505092915050565b6000620001d282620001ed565b9050919050565b6000620001e682620001c5565b9050919050565b600073ffffffffffffffffffffffffffffffffffffffff82169050919050565b600060028204905060018216806200022657607f821691505b602082108114156200023d576200023c62000243565b5b50919050565b7f4e487b7100000000000000000000000000000000000000000000000000000000600052602260045260246000fd5b6200027d81620001d9565b81146200028957600080fd5b50565b610a8f806200029c6000396000f3fe60806040526004361061004a5760003560e01c806306fdde031461004f5780632c4e722e1461007a5780636c11bcd3146100a5578063d0febe4c146100c1578063fc0c546a146100cb575b600080fd5b34801561005b57600080fd5b506100646100f6565b60405161007191906107d8565b60405180910390f35b34801561008657600080fd5b5061008f610184565b60405161009c91906107fa565b60405180910390f35b6100bf60048036038101906100ba9190610645565b61018a565b005b6100c96103db565b005b3480156100d757600080fd5b506100e06105b7565b6040516100ed91906107bd565b60405180910390f35b600080546101039061095b565b80601f016020809104026020016040519081016040528092919081815260200182805461012f9061095b565b801561017c5780601f106101515761010080835404028352916020019161017c565b820191906000526020600020905b81548152906001019060200180831161015f57829003601f168201915b505050505081565b60025481565b600033905060006002548361019f9190610831565b905082600160009054906101000a900473ffffffffffffffffffffffffffffffffffffffff1673ffffffffffffffffffffffffffffffffffffffff166370a08231336040518263ffffffff1660e01b81526004016101fd91906106fd565b60206040518083038186803b15801561021557600080fd5b505afa158015610229573d6000803e3d6000fd5b505050506040513d601f19601f8201168201806040525081019061024d919061066e565b101561025857600080fd5b803073ffffffffffffffffffffffffffffffffffffffff1631101561027c57600080fd5b600160009054906101000a900473ffffffffffffffffffffffffffffffffffffffff1673ffffffffffffffffffffffffffffffffffffffff166323b872dd3330866040518463ffffffff1660e01b81526004016102db93929190610718565b602060405180830381600087803b1580156102f557600080fd5b505af1158015610309573d6000803e3d6000fd5b505050506040513d601f19601f8201168201806040525081019061032d919061061c565b508173ffffffffffffffffffffffffffffffffffffffff166108fc829081150290604051600060405180830381858888f19350505050158015610374573d6000803e3d6000fd5b507f697c42d55a5e1fed3f464ec6f38b32546a0bd368dc8068b065c67566d73f329033600160009054906101000a900473ffffffffffffffffffffffffffffffffffffffff16856002546040516103ce949392919061074f565b60405180910390a1505050565b60006064346103ea9190610862565b905080600160009054906101000a900473ffffffffffffffffffffffffffffffffffffffff1673ffffffffffffffffffffffffffffffffffffffff166370a08231306040518263ffffffff1660e01b815260040161044891906106fd565b60206040518083038186803b15801561046057600080fd5b505afa158015610474573d6000803e3d6000fd5b505050506040513d601f19601f82011682018060405250810190610498919061066e565b10156104a357600080fd5b600160009054906101000a900473ffffffffffffffffffffffffffffffffffffffff1673ffffffffffffffffffffffffffffffffffffffff1663a9059cbb33836040518363ffffffff1660e01b8152600401610500929190610794565b602060405180830381600087803b15801561051a57600080fd5b505af115801561052e573d6000803e3d6000fd5b505050506040513d601f19601f82011682018060405250810190610552919061061c565b507f6faf93231a456e552dbc9961f58d9713ee4f2e69d15f1975b050ef0911053a7b33600160009054906101000a900473ffffffffffffffffffffffffffffffffffffffff16836002546040516105ac949392919061074f565b60405180910390a150565b600160009054906101000a900473ffffffffffffffffffffffffffffffffffffffff1681565b6000815190506105ec81610a2b565b92915050565b60008135905061060181610a42565b92915050565b60008151905061061681610a42565b92915050565b60006020828403121561062e57600080fd5b600061063c848285016105dd565b91505092915050565b60006020828403121561065757600080fd5b6000610665848285016105f2565b91505092915050565b60006020828403121561068057600080fd5b600061068e84828501610607565b91505092915050565b6106a0816108bc565b82525050565b6106af81610904565b82525050565b60006106c082610815565b6106ca8185610820565b93506106da818560208601610928565b6106e381610a1a565b840191505092915050565b6106f7816108fa565b82525050565b60006020820190506107126000830184610697565b92915050565b600060608201905061072d6000830186610697565b61073a6020830185610697565b61074760408301846106ee565b949350505050565b60006080820190506107646000830187610697565b6107716020830186610697565b61077e60408301856106ee565b61078b60608301846106ee565b95945050505050565b60006040820190506107a96000830185610697565b6107b660208301846106ee565b9392505050565b60006020820190506107d260008301846106a6565b92915050565b600060208201905081810360008301526107f281846106b5565b905092915050565b600060208201905061080f60008301846106ee565b92915050565b600081519050919050565b600082825260208201905092915050565b600061083c826108fa565b9150610847836108fa565b925082610857576108566109bc565b5b828204905092915050565b600061086d826108fa565b9150610878836108fa565b9250817fffffffffffffffffffffffffffffffffffffffffffffffffffffffffffffffff04831182151516156108b1576108b061098d565b5b828202905092915050565b60006108c7826108da565b9050919050565b60008115159050919050565b600073ffffffffffffffffffffffffffffffffffffffff82169050919050565b6000819050919050565b600061090f82610916565b9050919050565b6000610921826108da565b9050919050565b60005b8381101561094657808201518184015260208101905061092b565b83811115610955576000848401525b50505050565b6000600282049050600182168061097357607f821691505b60208210811415610987576109866109eb565b5b50919050565b7f4e487b7100000000000000000000000000000000000000000000000000000000600052601160045260246000fd5b7f4e487b7100000000000000000000000000000000000000000000000000000000600052601260045260246000fd5b7f4e487b7100000000000000000000000000000000000000000000000000000000600052602260045260246000fd5b6000601f19601f8301169050919050565b610a34816108ce565b8114610a3f57600080fd5b50565b610a4b816108fa565b8114610a5657600080fd5b5056fea2646970667358221220f858c7707662742c1c7af8cae85c2ce3c6b9c5dcffa9dc11e2e6c13a8fb80cf364736f6c63430008040033",
  "immutableReferences": {},
  "source": "pragma solidity ^0.8.4;\r\n\r\nimport \"./Token.sol\";\r\n\r\ncontract EthSwap {\r\n    string public name = \"EthSwap Instant Exchange\";\r\n    Token public token;\r\n    uint public rate = 100; //Exchange rate.\r\n    \r\n    event TokensPurchased(\r\n        address account,\r\n        address token,\r\n        uint amount,\r\n        uint rate\r\n    );\r\n\r\n    event TokensSold(\r\n        address account,\r\n        address token,\r\n        uint amount,\r\n        uint rate\r\n    );\r\n\r\n    constructor(Token _token) {\r\n        token = _token;\r\n    }\r\n\r\n    function buyTokens() public payable {\r\n        //Calculate amount of tokens to pay\r\n        uint tokenAmount = msg.value * 100; //Set tokenAmount to the amount of Ether received times 100.\r\n\r\n        //Require that EthSwap address has enough tokens.\r\n        require(token.balanceOf(address(this)) >= tokenAmount); //The exchange must have more than or equal amount of the requested tokenAmount to proceed.\r\n\r\n        //Transfer tokens to the user\r\n        token.transfer(msg.sender, tokenAmount); //Transfer the tokens to the buyers address.\r\n\r\n        //Emit the TokenPurchased Event\r\n        emit TokensPurchased(msg.sender, address(token), tokenAmount, rate);\r\n    }\r\n\r\n    \r\n    function sellTokens(uint _amount) public payable{\r\n        //Store sender address as a payable address.\r\n        address payable sender = payable(msg.sender);\r\n        \r\n        //Calculate Ether amount to redeem\r\n        uint etherAmount = _amount / rate;\r\n\r\n        //User cant sell more tokens that they have\r\n        require(token.balanceOf(msg.sender) >= _amount);\r\n\r\n        //Require EthSwap to have enough ether to redeem the tokens.\r\n        require(address(this).balance >= etherAmount);\r\n\r\n        //Transfer tokens from user, to EthSwap of amount.\r\n        token.transferFrom(msg.sender, address(this), _amount);\r\n\r\n        //Send ether to the msg sender.\r\n        sender.transfer(etherAmount);\r\n\r\n        //Emit the TokensSold event\r\n        emit TokensSold(msg.sender, address(token), _amount, rate);\r\n    }\r\n}",
  "sourcePath": "C:/Users/Nlanson/Desktop/Coding/dappExchange/src/contracts/EthSwap.sol",
  "compiler": {
    "name": "solc",
    "version": "0.8.4+commit.c7e474f2.Emscripten.clang"
  },
  "schemaVersion": "3.4.0",
  "updatedAt": "2021-04-30T13:31:20.425Z",
  "networkType": "ethereum",
  "devdoc": {
    "kind": "dev",
    "methods": {},
    "version": 1
  },
  "userdoc": {
    "kind": "user",
    "methods": {},
    "version": 1
  }
}