{
  "contractName": "EthSwap",
  "abi": [
    {
      "inputs": [
        {
          "internalType": "contract Token",
          "name": "_token",
          "type": "address"
        }
      ],
      "stateMutability": "nonpayable",
      "type": "constructor"
    },
    {
      "anonymous": false,
      "inputs": [
        {
          "indexed": false,
          "internalType": "address",
          "name": "account",
          "type": "address"
        },
        {
          "indexed": false,
          "internalType": "address",
          "name": "token",
          "type": "address"
        },
        {
          "indexed": false,
          "internalType": "uint256",
          "name": "amount",
          "type": "uint256"
        },
        {
          "indexed": false,
          "internalType": "uint256",
          "name": "rate",
          "type": "uint256"
        }
      ],
      "name": "TokenPurchased",
      "type": "event"
    },
    {
      "inputs": [],
      "name": "name",
      "outputs": [
        {
          "internalType": "string",
          "name": "",
          "type": "string"
        }
      ],
      "stateMutability": "view",
      "type": "function",
      "constant": true
    },
    {
      "inputs": [],
      "name": "rate",
      "outputs": [
        {
          "internalType": "uint256",
          "name": "",
          "type": "uint256"
        }
      ],
      "stateMutability": "view",
      "type": "function",
      "constant": true
    },
    {
      "inputs": [],
      "name": "token",
      "outputs": [
        {
          "internalType": "contract Token",
          "name": "",
          "type": "address"
        }
      ],
      "stateMutability": "view",
      "type": "function",
      "constant": true
    },
    {
      "inputs": [],
      "name": "buyTokens",
      "outputs": [],
      "stateMutability": "payable",
      "type": "function",
      "payable": true
    }
  ],
  "bytecode": "0x60806040526040518060400160405280601881526020017f4574685377617020496e7374616e742045786368616e676500000000000000008152506000908051906020019061004f9291906100cc565b50606460025534801561006157600080fd5b50604051620009bb380380620009bb83398181016040528101906100859190610184565b80600160006101000a81548173ffffffffffffffffffffffffffffffffffffffff021916908373ffffffffffffffffffffffffffffffffffffffff16021790555050610269565b8280546100d8906101f1565b90600052602060002090601f0160209004810192826100fa5760008555610141565b82601f1061011357805160ff1916838001178555610141565b82800160010185558215610141579182015b82811115610140578251825591602001919060010190610125565b5b50905061014e9190610152565b5090565b5b8082111561016b576000816000905550600101610153565b5090565b60008151905061017e81610252565b92915050565b60006020828403121561019657600080fd5b60006101a48482850161016f565b91505092915050565b60006101b8826101d1565b9050919050565b60006101ca826101ad565b9050919050565b600073ffffffffffffffffffffffffffffffffffffffff82169050919050565b6000600282049050600182168061020957607f821691505b6020821081141561021d5761021c610223565b5b50919050565b7f4e487b7100000000000000000000000000000000000000000000000000000000600052602260045260246000fd5b61025b816101bf565b811461026657600080fd5b50565b61074280620002796000396000f3fe60806040526004361061003f5760003560e01c806306fdde03146100445780632c4e722e1461006f578063d0febe4c1461009a578063fc0c546a146100a4575b600080fd5b34801561005057600080fd5b506100596100cf565b60405161006691906104eb565b60405180910390f35b34801561007b57600080fd5b5061008461015d565b604051610091919061050d565b60405180910390f35b6100a2610163565b005b3480156100b057600080fd5b506100b961033f565b6040516100c691906104d0565b60405180910390f35b600080546100dc9061063d565b80601f01602080910402602001604051908101604052809291908181526020018280546101089061063d565b80156101555780601f1061012a57610100808354040283529160200191610155565b820191906000526020600020905b81548152906001019060200180831161013857829003601f168201915b505050505081565b60025481565b60006064346101729190610544565b905080600160009054906101000a900473ffffffffffffffffffffffffffffffffffffffff1673ffffffffffffffffffffffffffffffffffffffff166370a08231306040518263ffffffff1660e01b81526004016101d09190610447565b60206040518083038186803b1580156101e857600080fd5b505afa1580156101fc573d6000803e3d6000fd5b505050506040513d601f19601f8201168201806040525081019061022091906103b8565b101561022b57600080fd5b600160009054906101000a900473ffffffffffffffffffffffffffffffffffffffff1673ffffffffffffffffffffffffffffffffffffffff1663a9059cbb33836040518363ffffffff1660e01b81526004016102889291906104a7565b602060405180830381600087803b1580156102a257600080fd5b505af11580156102b6573d6000803e3d6000fd5b505050506040513d601f19601f820116820180604052508101906102da919061038f565b507f8daf503382665d950e449b86172be5222275c90f4ddf69c29fdaa8237a562a6d33600160009054906101000a900473ffffffffffffffffffffffffffffffffffffffff16836002546040516103349493929190610462565b60405180910390a150565b600160009054906101000a900473ffffffffffffffffffffffffffffffffffffffff1681565b600081519050610374816106de565b92915050565b600081519050610389816106f5565b92915050565b6000602082840312156103a157600080fd5b60006103af84828501610365565b91505092915050565b6000602082840312156103ca57600080fd5b60006103d88482850161037a565b91505092915050565b6103ea8161059e565b82525050565b6103f9816105e6565b82525050565b600061040a82610528565b6104148185610533565b935061042481856020860161060a565b61042d816106cd565b840191505092915050565b610441816105dc565b82525050565b600060208201905061045c60008301846103e1565b92915050565b600060808201905061047760008301876103e1565b61048460208301866103e1565b6104916040830185610438565b61049e6060830184610438565b95945050505050565b60006040820190506104bc60008301856103e1565b6104c96020830184610438565b9392505050565b60006020820190506104e560008301846103f0565b92915050565b6000602082019050818103600083015261050581846103ff565b905092915050565b60006020820190506105226000830184610438565b92915050565b600081519050919050565b600082825260208201905092915050565b600061054f826105dc565b915061055a836105dc565b9250817fffffffffffffffffffffffffffffffffffffffffffffffffffffffffffffffff04831182151516156105935761059261066f565b5b828202905092915050565b60006105a9826105bc565b9050919050565b60008115159050919050565b600073ffffffffffffffffffffffffffffffffffffffff82169050919050565b6000819050919050565b60006105f1826105f8565b9050919050565b6000610603826105bc565b9050919050565b60005b8381101561062857808201518184015260208101905061060d565b83811115610637576000848401525b50505050565b6000600282049050600182168061065557607f821691505b602082108114156106695761066861069e565b5b50919050565b7f4e487b7100000000000000000000000000000000000000000000000000000000600052601160045260246000fd5b7f4e487b7100000000000000000000000000000000000000000000000000000000600052602260045260246000fd5b6000601f19601f8301169050919050565b6106e7816105b0565b81146106f257600080fd5b50565b6106fe816105dc565b811461070957600080fd5b5056fea264697066735822122070af618c11b6ef59fa1d7f6e4625215e93143abed2f038925f7dd4f50c6bc86d64736f6c63430008040033",
  "immutableReferences": {},
  "source": "pragma solidity ^0.8.4;\r\n\r\nimport \"./Token.sol\";\r\n\r\ncontract EthSwap {\r\n    string public name = \"EthSwap Instant Exchange\";\r\n    Token public token;\r\n    uint public rate = 100; //Exchange rate.\r\n    \r\n    event TokenPurchased(\r\n        address account,\r\n        address token,\r\n        uint amount,\r\n        uint rate\r\n    );\r\n\r\n    constructor(Token _token) {\r\n        token = _token;\r\n    }\r\n\r\n    function buyTokens() public payable {\r\n        uint tokenAmount = msg.value * 100; //Set tokenAmount to the amount of Ether received times 100.\r\n\r\n        require(token.balanceOf(address(this)) >= tokenAmount); //The exchange must have more than or equal amount of the requested tokenAmount to proceed.\r\n\r\n        token.transfer(msg.sender, tokenAmount); //Transfer the tokens to the buyers address.\r\n\r\n        //Emit the TokenPurchased Event\r\n        emit TokenPurchased(msg.sender, address(token), tokenAmount, rate);\r\n    }\r\n}",
  "sourcePath": "C:/Users/Nlanson/Desktop/Coding/dappExchange/src/contracts/EthSwap.sol",
  "compiler": {
    "name": "solc",
    "version": "0.8.4+commit.c7e474f2.Emscripten.clang"
  },
  "schemaVersion": "3.4.0",
  "updatedAt": "2021-04-24T09:35:31.671Z",
  "networkType": "ethereum",
  "devdoc": {
    "kind": "dev",
    "methods": {},
    "version": 1
  },
  "userdoc": {
    "kind": "user",
    "methods": {},
    "version": 1
  }
}